{
  "_format": "hh-sol-artifact-1",
  "contractName": "TrackingContract",
  "sourceName": "contracts/TrackingContract.sol",
  "abi": [
    {
      "inputs": [],
      "stateMutability": "nonpayable",
      "type": "constructor"
    },
    {
      "anonymous": false,
      "inputs": [
        {
          "indexed": true,
          "internalType": "address",
          "name": "from",
          "type": "address"
        },
        {
          "indexed": false,
          "internalType": "uint256",
          "name": "timestamp",
          "type": "uint256"
        },
        {
          "indexed": false,
          "internalType": "string",
          "name": "_uid",
          "type": "string"
        },
        {
          "indexed": false,
          "internalType": "string",
          "name": "_productName",
          "type": "string"
        },
        {
          "indexed": false,
          "internalType": "string",
          "name": "_producer",
          "type": "string"
        },
        {
          "indexed": false,
          "internalType": "string",
          "name": "_status",
          "type": "string"
        }
      ],
      "name": "NewScanEvent",
      "type": "event"
    },
    {
      "inputs": [
        {
          "internalType": "string",
          "name": "a",
          "type": "string"
        },
        {
          "internalType": "string",
          "name": "b",
          "type": "string"
        }
      ],
      "name": "compareStrings",
      "outputs": [
        {
          "internalType": "bool",
          "name": "",
          "type": "bool"
        }
      ],
      "stateMutability": "pure",
      "type": "function"
    },
    {
      "inputs": [
        {
          "internalType": "string",
          "name": "_uid",
          "type": "string"
        }
      ],
      "name": "getProduct",
      "outputs": [
        {
          "internalType": "string",
          "name": "",
          "type": "string"
        },
        {
          "internalType": "string",
          "name": "",
          "type": "string"
        },
        {
          "internalType": "string",
          "name": "",
          "type": "string"
        }
      ],
      "stateMutability": "view",
      "type": "function"
    },
    {
      "inputs": [
        {
          "internalType": "string",
          "name": "_uid",
          "type": "string"
        },
        {
          "internalType": "string",
          "name": "_productName",
          "type": "string"
        },
        {
          "internalType": "string",
          "name": "_producer",
          "type": "string"
        },
        {
          "internalType": "string",
          "name": "_status",
          "type": "string"
        }
      ],
      "name": "insert",
      "outputs": [
        {
          "internalType": "uint256",
          "name": "",
          "type": "uint256"
        }
      ],
      "stateMutability": "nonpayable",
      "type": "function"
    },
    {
      "inputs": [],
      "name": "me",
      "outputs": [
        {
          "internalType": "address",
          "name": "",
          "type": "address"
        }
      ],
      "stateMutability": "view",
      "type": "function"
    },
    {
      "inputs": [
        {
          "internalType": "uint256",
          "name": "",
          "type": "uint256"
        }
      ],
      "name": "products",
      "outputs": [
        {
          "internalType": "string",
          "name": "uid",
          "type": "string"
        },
        {
          "internalType": "uint256",
          "name": "scannedAt",
          "type": "uint256"
        },
        {
          "internalType": "string",
          "name": "productName",
          "type": "string"
        },
        {
          "internalType": "string",
          "name": "producer",
          "type": "string"
        },
        {
          "internalType": "string",
          "name": "status",
          "type": "string"
        }
      ],
      "stateMutability": "view",
      "type": "function"
    },
    {
      "inputs": [],
      "name": "totalTransactions",
      "outputs": [
        {
          "internalType": "uint256",
          "name": "",
          "type": "uint256"
        }
      ],
      "stateMutability": "view",
      "type": "function"
    }
  ],
  "bytecode": "0x608060405234801561001057600080fd5b50336000806101000a81548173ffffffffffffffffffffffffffffffffffffffff021916908373ffffffffffffffffffffffffffffffffffffffff16021790555061131a806100606000396000f3fe608060405234801561001057600080fd5b50600436106100625760003560e01c806368111cce146100675780637acc0b2014610099578063a216464b146100cd578063b9a60038146100fd578063bed34bba1461011b578063cb12b48f1461014b575b600080fd5b610081600480360381019061007c9190610cdc565b610169565b60405161009093929190610ee6565b60405180910390f35b6100b360048036038101906100ae9190610d89565b610544565b6040516100c4959493929190610f32565b60405180910390f35b6100e760048036038101906100e29190610c07565b6107aa565b6040516100f49190610fc1565b60405180910390f35b610105610a1a565b6040516101129190610fc1565b60405180910390f35b61013560048036038101906101309190610d1d565b610a20565b6040516101429190610ecb565b60405180910390f35b610153610a79565b6040516101609190610eb0565b60405180910390f35b606080606060005b60025481101561050157610258600182815481106101b8577f4e487b7100000000000000000000000000000000000000000000000000000000600052603260045260246000fd5b906000526020600020906005020160000180546101d49061115a565b80601f01602080910402602001604051908101604052809291908181526020018280546102009061115a565b801561024d5780601f106102225761010080835404028352916020019161024d565b820191906000526020600020905b81548152906001019060200180831161023057829003601f168201915b505050505086610a20565b156104ee5760018181548110610297577f4e487b7100000000000000000000000000000000000000000000000000000000600052603260045260246000fd5b9060005260206000209060050201600201600182815481106102e2577f4e487b7100000000000000000000000000000000000000000000000000000000600052603260045260246000fd5b90600052602060002090600502016003016001838154811061032d577f4e487b7100000000000000000000000000000000000000000000000000000000600052603260045260246000fd5b906000526020600020906005020160040182805461034a9061115a565b80601f01602080910402602001604051908101604052809291908181526020018280546103769061115a565b80156103c35780601f10610398576101008083540402835291602001916103c3565b820191906000526020600020905b8154815290600101906020018083116103a657829003601f168201915b505050505092508180546103d69061115a565b80601f01602080910402602001604051908101604052809291908181526020018280546104029061115a565b801561044f5780601f106104245761010080835404028352916020019161044f565b820191906000526020600020905b81548152906001019060200180831161043257829003601f168201915b505050505091508080546104629061115a565b80601f016020809104026020016040519081016040528092919081815260200182805461048e9061115a565b80156104db5780601f106104b0576101008083540402835291602001916104db565b820191906000526020600020905b8154815290600101906020018083116104be57829003601f168201915b505050505090509350935093505061053d565b80806104f9906111bd565b915050610171565b506040517f08c379a000000000000000000000000000000000000000000000000000000000815260040161053490610fa1565b60405180910390fd5b9193909250565b6001818154811061055457600080fd5b90600052602060002090600502016000915090508060000180546105779061115a565b80601f01602080910402602001604051908101604052809291908181526020018280546105a39061115a565b80156105f05780601f106105c5576101008083540402835291602001916105f0565b820191906000526020600020905b8154815290600101906020018083116105d357829003601f168201915b50505050509080600101549080600201805461060b9061115a565b80601f01602080910402602001604051908101604052809291908181526020018280546106379061115a565b80156106845780601f1061065957610100808354040283529160200191610684565b820191906000526020600020905b81548152906001019060200180831161066757829003601f168201915b5050505050908060030180546106999061115a565b80601f01602080910402602001604051908101604052809291908181526020018280546106c59061115a565b80156107125780601f106106e757610100808354040283529160200191610712565b820191906000526020600020905b8154815290600101906020018083116106f557829003601f168201915b5050505050908060040180546107279061115a565b80601f01602080910402602001604051908101604052809291908181526020018280546107539061115a565b80156107a05780601f10610775576101008083540402835291602001916107a0565b820191906000526020600020905b81548152906001019060200180831161078357829003601f168201915b5050505050905085565b6000806040518060a001604052808b8b8080601f016020809104026020016040519081016040528093929190818152602001838380828437600081840152601f19601f82011690508083019250505050505050815260200142815260200189898080601f016020809104026020016040519081016040528093929190818152602001838380828437600081840152601f19601f82011690508083019250505050505050815260200187878080601f016020809104026020016040519081016040528093929190818152602001838380828437600081840152601f19601f82011690508083019250505050505050815260200185858080601f016020809104026020016040519081016040528093929190818152602001838380828437600081840152601f19601f8201169050808301925050505050505081525090506001819080600181540180825580915050600190039060005260206000209060050201600090919091909150600082015181600001908051906020019061092e929190610a9d565b50602082015181600101556040820151816002019080519060200190610955929190610a9d565b506060820151816003019080519060200190610972929190610a9d565b50608082015181600401908051906020019061098f929190610a9d565b505050600260008154809291906109a5906111bd565b91905055503373ffffffffffffffffffffffffffffffffffffffff167f9b791e259a79a5bd39c54f1c6f501b344ab9ae8e4c44f134bb4e85328655d5eb428c8c8c8c8c8c8c8c604051610a0099989796959493929190610fdc565b60405180910390a260025491505098975050505050505050565b60025481565b600081604051602001610a339190610e99565b6040516020818303038152906040528051906020012083604051602001610a5a9190610e99565b6040516020818303038152906040528051906020012014905092915050565b60008054906101000a900473ffffffffffffffffffffffffffffffffffffffff1681565b828054610aa99061115a565b90600052602060002090601f016020900481019282610acb5760008555610b12565b82601f10610ae457805160ff1916838001178555610b12565b82800160010185558215610b12579182015b82811115610b11578251825591602001919060010190610af6565b5b509050610b1f9190610b23565b5090565b5b80821115610b3c576000816000905550600101610b24565b5090565b6000610b53610b4e84611078565b611053565b905082815260208101848484011115610b6b57600080fd5b610b76848285611118565b509392505050565b60008083601f840112610b9057600080fd5b8235905067ffffffffffffffff811115610ba957600080fd5b602083019150836001820283011115610bc157600080fd5b9250929050565b600082601f830112610bd957600080fd5b8135610be9848260208601610b40565b91505092915050565b600081359050610c01816112cd565b92915050565b6000806000806000806000806080898b031215610c2357600080fd5b600089013567ffffffffffffffff811115610c3d57600080fd5b610c498b828c01610b7e565b9850985050602089013567ffffffffffffffff811115610c6857600080fd5b610c748b828c01610b7e565b9650965050604089013567ffffffffffffffff811115610c9357600080fd5b610c9f8b828c01610b7e565b9450945050606089013567ffffffffffffffff811115610cbe57600080fd5b610cca8b828c01610b7e565b92509250509295985092959890939650565b600060208284031215610cee57600080fd5b600082013567ffffffffffffffff811115610d0857600080fd5b610d1484828501610bc8565b91505092915050565b60008060408385031215610d3057600080fd5b600083013567ffffffffffffffff811115610d4a57600080fd5b610d5685828601610bc8565b925050602083013567ffffffffffffffff811115610d7357600080fd5b610d7f85828601610bc8565b9150509250929050565b600060208284031215610d9b57600080fd5b6000610da984828501610bf2565b91505092915050565b610dbb816110d0565b82525050565b610dca816110e2565b82525050565b6000610ddc83856110b4565b9350610de9838584611118565b610df283611293565b840190509392505050565b6000610e08826110a9565b610e1281856110b4565b9350610e22818560208601611127565b610e2b81611293565b840191505092915050565b6000610e41826110a9565b610e4b81856110c5565b9350610e5b818560208601611127565b80840191505092915050565b6000610e746011836110b4565b9150610e7f826112a4565b602082019050919050565b610e938161110e565b82525050565b6000610ea58284610e36565b915081905092915050565b6000602082019050610ec56000830184610db2565b92915050565b6000602082019050610ee06000830184610dc1565b92915050565b60006060820190508181036000830152610f008186610dfd565b90508181036020830152610f148185610dfd565b90508181036040830152610f288184610dfd565b9050949350505050565b600060a0820190508181036000830152610f4c8188610dfd565b9050610f5b6020830187610e8a565b8181036040830152610f6d8186610dfd565b90508181036060830152610f818185610dfd565b90508181036080830152610f958184610dfd565b90509695505050505050565b60006020820190508181036000830152610fba81610e67565b9050919050565b6000602082019050610fd66000830184610e8a565b92915050565b600060a082019050610ff1600083018c610e8a565b8181036020830152611004818a8c610dd0565b9050818103604083015261101981888a610dd0565b9050818103606083015261102e818688610dd0565b90508181036080830152611043818486610dd0565b90509a9950505050505050505050565b600061105d61106e565b9050611069828261118c565b919050565b6000604051905090565b600067ffffffffffffffff82111561109357611092611264565b5b61109c82611293565b9050602081019050919050565b600081519050919050565b600082825260208201905092915050565b600081905092915050565b60006110db826110ee565b9050919050565b60008115159050919050565b600073ffffffffffffffffffffffffffffffffffffffff82169050919050565b6000819050919050565b82818337600083830152505050565b60005b8381101561114557808201518184015260208101905061112a565b83811115611154576000848401525b50505050565b6000600282049050600182168061117257607f821691505b6020821081141561118657611185611235565b5b50919050565b61119582611293565b810181811067ffffffffffffffff821117156111b4576111b3611264565b5b80604052505050565b60006111c88261110e565b91507fffffffffffffffffffffffffffffffffffffffffffffffffffffffffffffffff8214156111fb576111fa611206565b5b600182019050919050565b7f4e487b7100000000000000000000000000000000000000000000000000000000600052601160045260246000fd5b7f4e487b7100000000000000000000000000000000000000000000000000000000600052602260045260246000fd5b7f4e487b7100000000000000000000000000000000000000000000000000000000600052604160045260246000fd5b6000601f19601f8301169050919050565b7f636f756e747279206e6f7420666f756e64000000000000000000000000000000600082015250565b6112d68161110e565b81146112e157600080fd5b5056fea2646970667358221220af6344bb9fafdbf8a132cd4eb1cc6dab313f7a2dd55f2450bf4c107907ffb19164736f6c63430008040033",
  "linkReferences": {},
  "deployedLinkReferences": {}
}